:020000040800F2
:1000000000000220551E00084107000843070008B1
:1000100045070008470700084907000800000000DE
:100020000000000000000000000000004B07000876
:100030004D070008000000004F07000851070008A6
:10004000A51E0008A51E0008A51E0008A51E000884
:10005000A51E0008A51E0008A51E0008A51E000874
:10006000A51E0008A51E0008A51E0008A51E000864
:10007000A51E0008A51E0008A51E0008A51E000854
:10008000A51E0008A51E0008A51E0008A51E000844
:10009000A51E0008A51E0008A51E0008A51E000834
:1000A000A51E0008A51E0008A51E0008A51E000824
:1000B000A51E0008A51E0008A51E0008A51E000814
:1000C000A51E0008A51E0008A51E0008A51E000804
:1000D000A51E0008A51E0008A51E0008A51E0008F4
:1000E000A51E0008A51E0008A51E0008A51E0008E4
:1000F000A51E0008A51E0008A51E0008A51E0008D4
:10010000A51E0008A51E0008A51E0008A51E0008C3
:10011000A51E0008A51E0008A51E0008A51E0008B3
:10012000A51E0008A51E0008A51E0008A51E0008A3
:10013000A51E00080000000000000000A51E000829
:10014000A51E0008A51E0008A51E0008A51E000883
:10015000A51E0008A51E0008A51E0008A51E000873
:10016000A51E0008A51E0008A51E0008A51E000863
:10017000A51E0008A51E0008A51E0008000000001E
:1001800000000000A51E00080000000000000000A4
:10019000A51E00080000000000000000A51E0008C9
:1001A000000000000000000000000000A51E000884
:1001B000A51E0008A51E0008A51E0008A51E000813
:0401C000A51E000870
:1001C40010B5054C237833B9044B13B10448AFF38D
:1001D40000800123237010BD0C00002000000000EB
:1001E400001F000808B5034B1BB103490348AFF3D4
:1001F400008008BD0000000010000020001F00085F
:1002040053B94AB9002908BF00281CBF4FF0FF3179
:100214004FF0FF3000F074B9ADF1080C6DE904CE75
:1002240000F006F8DDF804E0DDE9022304B07047CD
:100234002DE9F047089D04468E46002B4DD18A4295
:10024400944669D9B2FA82F252B101FA02F3C2F1C8
:10025400200120FA01F10CFA02FC41EA030E944059
:100264004FEA1C48210CBEFBF8F61FFA8CF708FB7A
:1002740016E341EA034306FB07F199420AD91CEB52
:10028400030306F1FF3080F01F81994240F21C8184
:10029400023E63445B1AA4B2B3FBF8F008FB1033CC
:1002A40044EA034400FB07F7A7420AD91CEB040401
:1002B40000F1FF3380F00A81A74240F207816444D1
:1002C400023840EA0640E41B00261DB1D440002356
:1002D400C5E900433146BDE8F0878B4209D9002DBA
:1002E40000F0EF800026C5E9000130463146BDE844
:1002F400F087B3FA83F6002E4AD18B4202D38242AE
:1003040000F2F980841A61EB030301209E46002D5C
:10031400E0D0C5E9004EDDE702B9FFDEB2FA82F2B1
:10032400002A40F09280A1EB0C014FEA1C471FFA0F
:100334008CFE0126200CB1FBF7F307FB131140EAF6
:1003440001410EFB03F0884208D91CEB010103F1C3
:10035400FF3802D2884200F2CB804346091AA4B285
:10036400B1FBF7F007FB101144EA01440EFB00FE59
:10037400A64508D91CEB040400F1FF3102D2A645BE
:1003840000F2BB800846A4EB0E0440EA03409CE75D
:10039400C6F12007B34022FA07FC4CEA030C20FA0A
:1003A40007F401FA06F31C43F9404FEA1C4900FA2A
:1003B40006F3B1FBF9F8200C1FFA8CFE09FB1811A7
:1003C40040EA014108FB0EF0884202FA06F20BD91A
:1003D4001CEB010108F1FF3A80F08880884240F26A
:1003E4008580A8F102086144091AA4B2B1FBF9F0AE
:1003F40009FB101144EA014100FB0EFE8E4508D9A9
:100404001CEB010100F1FF346CD28E456AD902382D
:10041400614440EA0840A0FB0294A1EB0E01A14212
:10042400C846A64656D353D05DB1B3EB080261EB80
:100434000E0101FA07F722FA06F3F1401F43C5E95A
:10044400007100263146BDE8F087C2F12003D84090
:100454000CFA02FC21FA03F3914001434FEA1C47D2
:100464001FFA8CFEB3FBF7F007FB10360B0C43EAC4
:10047400064300FB0EF69E4204FA02F408D91CEB74
:10048400030300F1FF382FD29E422DD90238634472
:100494009B1B89B2B3FBF7F607FB163341EA034112
:1004A40006FB0EF38B4208D91CEB010106F1FF3861
:1004B40016D28B4214D9023E6144C91A46EA004658
:1004C40038E72E46284605E70646E3E61846F8E6EA
:1004D4004B45A9D2B9EB020864EB0C0E0138A3E733
:1004E4004646EAE7204694E74046D1E7D0467BE714
:1004F400023B614432E7304609E76444023842E78C
:10050400704700BFF0B58DB0002407940894099497
:100514000A940B940194394B1A6B42F004021A6347
:100524001A6B02F004020192019A02941A6B42F0CF
:1005340080021A631A6B02F080020292029A0394F8
:100544001A6B42F002021A631A6B02F0020203925F
:10055400039A04941A6B42F008021A631A6B02F0AD
:1005640008020492049A05941A6B42F040021A633A
:100574001A6B02F040020592059A06941A6B42F037
:1005840001021A631B6B03F001030693069B1C4FC5
:10059400224644F28101384601F01CF9194D2246E5
:1005A4004021284601F016F94FF4005307934FF405
:1005B40088130893099407A9134801F01FF844F21B
:1005C400810307930126089609940A9407A93846DB
:1005D40001F014F840230793089609940A9407A994
:1005E400284601F00BF8802307930894099407A97F
:1005F400284601F003F80DB0F0BD00BF00380240FA
:1006040000040240001802400008024072B6FEE7EF
:1006140008B50A480A4B03604FF4E13343600023F2
:100624008360C36003610C2242618361C36100F093
:10063400C3F900B908BDFFF7E9FF00BF0C050020AE
:100644000048004008B50B484FF0A0430360062360
:1006540003710222C27100238371427201228272E9
:10066400C37203738273C37301F07EF900B908BDCA
:10067400FFF7CCFF2800002000B595B034220021FC
:1006840007A801F033FC002302930393049305931A
:1006940006930093214A116C41F080511164126C4D
:1006A40002F080520092009A01931D4B1A6842F4A2
:1006B40040421A601B6803F440430193019B0123E9
:1006C40007934FF4A023089302230D934FF4800261
:1006D4000E9204220F92A8221092119307221292D2
:1006E400139307A800F068FD98B90F23029302231F
:1006F4000393002304934FF4A05305934FF48053C2
:100704000693052102A800F087F920B915B05DF819
:1007140004FBFFF77BFFFFF779FF00BF00380240BF
:100724000070004008B501F0DFF8FFF7A5FFFFF700
:10073400E9FEFFF76DFFFFF785FFFEE7FEE7FEE743
:10074400FEE7FEE7FEE770477047704708B501F023
:10075400E5F808BD82B0002100910B4B5A6C42F4BD
:1007640080425A645A6C02F480420092009A0191C9
:100774001A6C42F080521A641B6C03F0805301938C
:10078400019B02B0704700BF0038024000B589B039
:100794000023039304930593069307930268154B70
:1007A4009A4202D009B05DF804FB0021019103F5DF
:1007B400F8331A6C42F480221A641A6C02F4802210
:1007C4000192019A02911A6B42F008021A631B6BA0
:1007D40003F008030293029B4FF440730393022334
:1007E4000493032306930723079303A9024800F005
:1007F40005FFD7E700480040000C024070B59EB0EA
:100804000446002119911A911B911C911D915C229F
:1008140002A801F06BFB2368B3F1A04F01D01EB016
:1008240070BD4FF48073029302A800F0CBF9002846
:1008340032D1002500951A4C236B43F00103236346
:10084400236B03F001030093009B4FF4E8531993C7
:1008540002231A931B9503231C930A231D93114E01
:1008640019A9304600F0CAFE4FF4007319931A9583
:100874001B9519A9304600F0C1FE636B43F0800359
:1008840063630195636C43F480436364636C03F4B2
:1008940080430193019BC2E7FFF7B8FEC9E700BF9D
:1008A400003802400000024038B50446026813696B
:1008B40023F44053C1680B431361836802691343F3
:1008C40042691343C2691A430168CB6823F416438F
:1008D40023F00C031343CB600268536923F4407381
:1008E40081690B4353610368314A934206D002F590
:1008F4008062934202D000F045F901E000F052F921
:10090400E369B3F5004F29D00021031849411B18AE
:1009140041F10001C90041EA5371DB001818636812
:100924004FEA83024FEA937341F10001FFF768FC39
:10093400204DA5FB00325109642303FB11031B0165
:100944003233A5FB03235B0903F0F00202EB01122F
:1009540003F00F03216813448B6038BD0023021891
:1009640043EB0301121841F10001C90041EA52713D
:10097400D200101841F10001626892185B41FFF740
:100984003FFC0C4DA5FB00325109642303FB11030A
:10099400DB003233A5FB03235B095A0002F4F8722F
:1009A40002EB011203F00703216813448B60D4E7C0
:1009B400001001401F85EB5160B310B5044690F858
:1009C400413013B3242384F841302268D36823F4DC
:1009D4000053D3602046FFF767FF2268136923F4AE
:1009E400904313612268536923F02A0353612268F8
:1009F400D36843F40053D36000206064202384F858
:100A0400413084F84230606310BD80F84030FFF715
:100A1400BDFED7E701207047002800F09B8070B529
:100A24000D4604464F4B1B6803F00F038B4208D25C
:100A3400CBB24C4A1370136803F00F038B4240F09F
:100A44008B80236813F0020F17D013F0040F04D027
:100A5400454A936843F4E0539360236813F0080F06
:100A640004D0414A936843F4604393603E4A9368D8
:100A740023F0F003A1680B439360236813F0010F84
:100A840032D06368012B21D09A1E012A25D9364A17
:100A9400126812F0020F61D033498A6822F003020F
:100AA40013438B6000F046FF06462F4B9B6803F010
:100AB4000C036268B3EB820F16D000F03BFF801B7F
:100AC40041F288339842F0D9032042E0264A126862
:100AD40012F4003FE0D101203BE0234A126812F0F7
:100AE400007FD9D1012034E01E4B1B6803F00F03B3
:100AF400AB4207D9EAB21B4B1A701B6803F00F0311
:100B0400AB422DD1236813F0040F06D0164A936824
:100B140023F4E053E1680B439360236813F0080F58
:100B240007D0114A936823F46043216943EAC1035F
:100B3400936000F081FA0C4B9B68C3F303130B4AD8
:100B4400D35CD8400A4B18600A4B186800F0A6FE24
:100B5400002070BD012070470120FAE70120F8E76A
:100B64000120F6E7003C024000380240181F00084C
:100B74000800002004000020014B1868704700BFE3
:100B84000800002008B5FFF7F7FF044B9B68C3F388
:100B94008223034AD35CD84008BD00BF003802401A
:100BA400281F000808B5FFF7E7FF044B9B68C3F351
:100BB4004233034AD35CD84008BD00BF003802402A
:100BC400281F0008F0B583B00446066816F0010635
:100BD4000DD0964AD2F88C3023F0C063816B0B435E
:100BE400C2F88C30836B002B00F09B8000262368B6
:100BF40013F0020F0BD08D4AD2F88C3023F0C0537F
:100C0400E16B0B43C2F88C30E36B03B90126256812
:100C140015F004050FD0854AD2F88C3023F4401324
:100C2400216B0B43C2F88C30236BB3F5801F7AD051
:100C3400002B7AD00025236813F0080F0ED07B4ACE
:100C4400D2F88C3023F44003616B0B43C2F88C3030
:100C5400636BB3F5800F6AD003B90125236813F0E1
:100C6400200F66D1236813F0100F04D094F8582095
:100C74006F4BC3F8E021236813F0800F08D06B4A50
:100C8400D2F8943023F44003E16C0B43C2F894305F
:100C9400236813F0400F08D0644AD2F8943023F04C
:100CA4008063A16C0B43C2F89430236813F4807FF3
:100CB4000DD05E4AD2F8943023F00063616D0B438B
:100CC400C2F89430636DB3F1006F00F09B80236829
:100CD40013F4007F08D0554AD2F8943023F080539F
:100CE400616C0B43C2F89430236813F4806F0CD00A
:100CF4004E4AD2F8943023F00053216D0B43C2F8CE
:100D04009430236DB3F1005F7ED0002E7CD1236834
:100D1400B3F5006F78D0012D00F02581002003B0D9
:100D2400F0BD012663E7012682E7012583E701265A
:100D340092E7002301933D4B1A6C42F080521A64EF
:100D44001B6C03F080530193019B3A4A136843F4EC
:100D54008073136000F0EEFD0746364B1B6813F4F6
:100D6400807F06D100F0E6FDC01B0228F5D90320E0
:100D7400D5E72E4B1B6F13F4407314D0226C02F48E
:100D840040729A420FD0294B1A6F22F440722A49BA
:100D94000120C1F8400E0020C1F8400E1A671B6FF5
:100DA40013F0010F12D1236C03F44072B2F5407FAB
:100DB4001DD01E4A936823F4F81393601B490B6FEC
:100DC400226CC2F30B0213430B674BE700F0B2FD36
:100DD4000746164B1B6F13F0020FE4D100F0AAFD77
:100DE400C01B41F288339842F3D9032097E70F4997
:100DF4008A6822F4F81223F0704323F440731343F7
:100E04008B60DBE7012562E70B4B00229A6600F05A
:100E140091FD0646054B1B6813F0006F0ED000F0E1
:100E240089FD801B0228F5D9032078E700380240A9
:100E3400001047420070004000004742236813F04E
:100E4400010F01D0A26B22B113F0020F15D0E36B96
:100E54009BB9774AD2F88400D2F884106368A668F4
:100E640043EA861300F44030034301F070610B43FE
:100E7400616943EA0173C2F88430236813F0040FF4
:100E840003D0226BB2F5801F06D013F0080F20D0D8
:100E9400636BB3F5800F1CD1654AD2F88400D2F895
:100EA40084106368A66843EA861300F44030034361
:100EB400206943EA006301F0E0410B43C2F8843047
:100EC400D2F88C3023F01F03A16A01390B43C2F816
:100ED4008C30236813F4806F03D0236DB3F1005F6B
:100EE40028D0236813F4006F11D06368A26843EA22
:100EF4008213E2685208013A43EA0243226943EA50
:100F04000263626943EA0273494AC2F88430494B76
:100F140001229A6600F00EFD0646454B1B6813F04D
:100F2400006F7FF4F8AE00F005FD801B0228F4D9B1
:100F34000320F4E63E48D0F88430C3F301435A1C3E
:100F4400D0F884606368A16843EA8113E1684908C2
:100F5400013943EA014343EA426306F0E0421343A2
:100F6400C0F88430BDE7334B00221A6700F0E2FC7E
:100F740005462F4B1B6813F0005F06D000F0DAFC27
:100F8400401B0228F5D90320C9E6236813F0040F97
:100F940001D0226B22B113F0080F1AD0636BC3B9CE
:100FA400234AD2F88810A369E06943EA801301F464
:100FB40040310B43616A43EA0163C2F88830D2F8D6
:100FC4008C3023F4F853E16A013943EA0123C2F86F
:100FD4008C30236813F4807F03D0636DB3F1006F0A
:100FE40011D0144B01221A6700F0A4FC0446104BE4
:100FF4001B6813F0005F18D100F09CFC001B022852
:10100400F5D903208BE60A48D0F88810A369E26971
:1010140043EA8213226A5208013A43EA024301F086
:1010240070621343C0F88830DBE7002077E600BF26
:10103400003802400000474208B55C4B9B6803F04F
:101044000C03082B07D00C2B5BD0042B01D0584881
:1010540008BD5848FCE7554B5A6802F03F025B68EC
:1010640013F4800F2AD0514B5968C1F3881C4FEAFE
:101074004C11B1EB0C006EEB0E0E4FEA8E1343EAEB
:1010840090638101091A63EB0E03DB0043EA517399
:10109400C90011EB0C0C43F10003590200234FEA81
:1010A4004C2041EADC51FFF7ABF8404B5B68C3F3DB
:1010B400014301335B00B0FBF3F0C9E73B4B5968D4
:1010C400C1F3881C4FEA4C11B1EB0C006EEB0E0E11
:1010D4004FEA8E1343EA90638101091A63EB0E030E
:1010E400DB0043EA5173C90011EB0C0C43F100031C
:1010F400990200234FEA8C2041EA9C51FFF780F8C3
:10110400D3E72A4B5A6802F03F025B6813F4800F5E
:1011140028D0264B5968C1F3881C4FEA4C11B1EB17
:101124000C006EEB0E0E4FEA8E1343EA90638101BE
:10113400091A63EB0E03DB0043EA5173C90011EB98
:101144000C0C43F10003590200234FEA4C2041EAFE
:10115400DC51FFF755F8154B5B68C3F30273B0FB22
:10116400F3F075E7114B5968C1F3881C4FEA4C1131
:10117400B1EB0C006EEB0E0E4FEA8E1343EA906354
:101184008101091A63EB0E03DB0043EA5173C900C2
:1011940011EB0C0C43F10003990200234FEA8C205D
:1011A40041EA9C51FFF72CF8D5E700BF0038024014
:1011B4000024F40000127A00002800F0018270B5C7
:1011C40082B00446036813F0010F41D0994B9B6829
:1011D40003F00C03042B32D0964B9B6803F00C03F2
:1011E400082B27D0934B9B6803F00C030C2B59D08E
:1011F4006368B3F5803F5BD0B3F5A02F5ED08D4B11
:101204001A6822F480321A601A6822F480221A6062
:101214006368002B5CD000F08DFB0546854B1B6892
:1012240013F4003F14D100F085FB401B6428F5D96A
:101234000320CCE17F4B5B6813F4800FD2D07D4B4D
:101244001B6813F4003F03D06368002B00F0BA81DD
:10125400236813F0020F60D0764B9B6813F00C0FD9
:101264004AD0744B9B6803F00C03082B3FD0714B9E
:101274009B6803F00C030C2B69D0E368002B75D03A
:101284006D4B01221A6000F055FB0546694B1B6843
:1012940013F0020F61D100F04DFB401B0228F5D979
:1012A400032094E1634B5B6813F4800FA0D0C6E77E
:1012B400604A136843F480331360A9E75D4B1A68EE
:1012C40042F480221A601A6842F480321A609FE75E
:1012D40000F030FB0546574B1B6813F4003FB7D0B2
:1012E40000F028FB401B6428F5D903206FE1514B23
:1012F4005B6813F4800FBAD14E4B1B6813F0020FD6
:1013040003D0E368012B40F05F814A4A136823F05D
:10131400F803216943EAC1031360236813F0080F3B
:1013240049D06369002B33D0434B0122C3F8802E8C
:1013340000F000FB05463F4B5B6F13F0020F3AD100
:1013440000F0F8FA401B0228F5D903203FE1394B9D
:101354005B6813F4800F90D1CEE7364A136823F00C
:10136400F803216943EAC1031360D6E7324B002234
:101374001A6000F0DFFA05462E4B1B6813F0020FCB
:10138400CBD000F0D7FA401B0228F5D903201EE188
:10139400294B0022C3F8802E00F0CCFA0546254BD9
:1013A4005B6F13F0020F06D000F0C4FA401B022852
:1013B400F5D903200BE1236813F0040F76D01D4BFD
:1013C4001B6C13F0805F33D100230193194B1A6C0B
:1013D40042F080521A641B6C03F080530193019B0A
:1013E4000125164B1B6813F4807F29D0A368012BB9
:1013F4003AD0052B3ED00F4B1A6F22F001021A6728
:101404001A6F22F004021A67A368002B3CD000F084
:1014140091FA0646074B1B6F13F0020F45D100F0FB
:1014240089FA801B41F288339842F3D90320CEE035
:101434000025D6E700380240000047420070004013
:101444006B4A136843F48073136000F073FA064622
:10145400674B1B6813F4807FC8D100F06BFA801BC4
:101464000228F5D90320B2E0624A136F43F0010366
:101474001367C9E75F4B1A6F42F004021A671A6FC9
:1014840042F001021A67BFE700F054FA0646594BCE
:101494001B6F13F0020F08D000F04CFA801B41F2CE
:1014A40088339842F3D9032091E0EDB9A369002B66
:1014B40000F08C804F4A926802F00C02082A54D043
:1014C400022B17D04C4B00221A6600F033FA044664
:1014D400484B1B6813F0007F45D000F02BFA001B2B
:1014E4000228F5D9032072E0424A136C23F080539A
:1014F4001364DBE7404B00221A6600F01BFA054632
:101504003C4B1B6813F0007F06D000F013FA401B1D
:101514000228F5D903205AE0E369226A1343626A78
:1015240043EA8213A26A5208013A43EA0243E26A96
:1015340043EA0263226B43EA02732E4A53602E4B42
:1015440001221A6600F0F6F904462A4B1B6813F0D0
:10155400007F06D100F0EEF9001B0228F5D9032024
:1015640035E0002033E0002031E0012B31D0214B65
:101574005B6803F48001E26991422CD103F03F02DD
:10158400216A8A4229D1616A47F6C0721A40B2EBD5
:10159400811F24D103F44031A26A5208013AB1EB0D
:1015A400024F1ED103F07062E16AB2EB016F1AD1EF
:1015B40003F0E043226BB3EB027F16D1002006E078
:1015C40001207047012002E0012000E0002002B069
:1015D40070BD0120FBE70120F9E70120F7E70120B6
:1015E400F5E70120F3E70120F1E70120EFE700BF71
:1015F40000700040003802400000474200230F2BD7
:1016040000F2DE8070B582B060E085685E0003247D
:10161400B44025EA0405CC68B4402C438460456892
:1016240025EA02054C68C4F300129A402A4342603A
:101634005AE0DC08083450F8246003F007029500EF
:101644000F22AA4026EA020E0A69AA4042EA0E02C2
:1016540040F824205CE0062200E0002202FA0EF2A8
:101664002A430234574D45F82420574A94686FEAB8
:101674000C0224EA0C054E6816F4801F01D04CEAD3
:101684000405514CA560E46802EA04054E6816F4AA
:10169400001F01D04CEA04054B4CE560646802EA83
:1016A40004054E6816F4003F01D04CEA0405464C8C
:1016B4006560246822404D6815F4803F01D04CEAEF
:1016C4000402414C226001330F2B77D801229A4047
:1016D4000C6804EA020C32EA0404F4D14C6804F005
:1016E4000304013C012C90D94A6802F00302032A46
:1016F40009D0C4685D000322AA4024EA02048A686F
:10170400AA402243C2604A6802F00302022A90D02F
:1017140004684FEA430E032202FA0EF224EA02049A
:101724004A6802F0030202FA0EF2224302604A6897
:1017340012F4403FC7D000220192244A546C44F46E
:1017440080445464526C02F480420192019A9C08D1
:10175400A51C1C4A52F8255003F003024FEA820EDE
:101764000F2202FA0EF225EA0205194A90423FF4CA
:1017740074AF02F58062904216D002F58062904206
:1017840014D002F58062904212D002F58062904239
:1017940010D002F5806290420ED002F58062904231
:1017A4003FF459AF072259E7012257E7022255E7D0
:1017B400032253E7042251E705224FE702B070BD2C
:1017C400704700BF00380140003C0140003802402F
:1017D400000002400AB181617047090481617047C9
:1017E400074AD36823F4E0631B041B0C000200F4D3
:1017F400E060034343F0BF6343F40033D3607047B6
:1018040000ED00E000B5194BDB68C3F30223C3F11C
:10181400070CBCF1040F28BF4FF0040C03F1040EB5
:10182400BEF1060F18D9033B4FF0FF3E0EFA0CFC35
:1018340021EA0C0199400EFA03F322EA0303194347
:1018440000280BDB0901C9B200F1604000F56140DA
:1018540080F800135DF804FB0023E5E700F00F00B7
:101864000901C9B2024B1954F4E700BF00ED00E0CE
:1018740014ED00E00138B0F1807F0BD24FF0E0238B
:101884005861054AF02182F823100020986107224C
:101894001A6170470120704700ED00E010B504465E
:1018A4000E4B18784FF47A73B3FBF0F30C4A1068BC
:1018B400B0FBF3F0FFF7DEFF68B90F2C01D901206C
:1018C4000AE0002221464FF0FF30FFF79BFF054B53
:1018D4001C60002000E0012010BD00BF00000020BB
:1018E400080000200400002008B50B4B1A6842F4DD
:1018F40000721A601A6842F480621A601A6842F42C
:1019040080721A600320FFF76BFF0020FFF7C6FF09
:10191400FEF720FF002008BD003C0240034A116886
:10192400034B1B780B441360704700BF5405002021
:1019340000000020014B1868704700BF54050020C8
:1019440038B50446FFF7F6FF0546B4F1FF3F02D071
:10195400044B1B781C44FFF7EDFF401BA042FAD355
:1019640038BD00BF0000002030B583B0002800F06F
:1019740082800446056890F89534C3B1032384F843
:101984009534B5F1A04F17D0206800F0F7F8237C08
:101994008DF80030231D0ECB206800F0A6F870B13E
:1019A400022384F895340125284603B030BD80F81D
:1019B4009434FEF723FFE1E70023A371E4E7002159
:1019C400206800F009FA024608B9034617E002232A
:1019D40084F895340125E7E703EBC30104EB8101A7
:1019E400012048750B75CB8500200876C861086214
:1019F40003EBC30104EB810148620133DBB22079BC
:101A04009842E9D816E002EBC20304EB83030021F9
:101A140083F8551283F8542283F85812C3F85C12E1
:101A2400C3F8601202EBC20304EB8303C3F864122D
:101A34000132D2B29042E6D8237C8DF80030231DC7
:101A44000ECB206800F0F0F8054658B90023637403
:101A5400012384F89534237B012B08D0206800F0FF
:101A6400A9F9A1E7022384F8953401259CE72046CF
:101A740000F003F8F2E7012596E703460268012126
:101A8400C0F8D814002083F8CC04936943F00063B1
:101A94009361536D43F0805343F0030353657047E0
:101AA40082B000230193019B01330193019BB3F1A5
:101AB400706F15D80369002BF5DA002301930369CD
:101AC40043F001030361019B01330193019BB3F1D3
:101AD400706F08D8036913F0010FF4D1002000E0FF
:101AE400032002B070470320FBE784B010B504461E
:101AF40003A880E80E009DF81130012B21D1A36BBF
:101B040023F48033A363E36823F4840323F04003C2
:101B1400E360E36823F44013E3609DF81830012B7D
:101B24000AD02046FFF7BCFF9DF80E30012B1CD0D5
:101B3400BDE8104004B07047E36843F48013E360E9
:101B4400EFE7E36843F04003E3602046FFF7A8FFB4
:101B54009DF8153023B9A36B43F48033A363E3E703
:101B6400A36B23F48033A363DEE7A36843F0060387
:101B7400A360A36843F02003A360D9E7836823F03C
:101B8400010383600020704782B000230193019B0E
:101B940001330193019BB3F1706F15D80369002BD6
:101BA400F5DA00230193890141F020010161019BD1
:101BB40001330193019BB3F1706F08D8036913F0EB
:101BC400200FF4D1002000E0032002B0704703206E
:101BD400FBE782B000230193019B01330193019B36
:101BE400B3F1706F13D80369002BF5DA0023019366
:101BF40010230361019B01330193019BB3F1706FC7
:101C040008D8036913F0100FF4D1002000E003207A
:101C140002B070470320FBE7D0F800381943C0F83E
:101C2400001800207047000084B0F8B5044607A8E7
:101C340080E80E00002306E003F1400204EB820278
:101C44000021516001330E2BF6D99DF8266006BBA6
:101C5400D4F8043843F00203C4F80438A36B23F423
:101C64000013A363236843F040032360236843F015
:101C7400800323600023C4F8003E9DF82130012B2B
:101C840011D19DF81F304BB900212046FFF7C4FF46
:101C94000DE0A36B43F40013A363EBE7012120469B
:101CA400FFF7BAFF03E003212046FFF7B5FF102139
:101CB4002046FFF769FF054600B101252046FFF7DE
:101CC40088FF00B1012504F5006C0023CCF8103026
:101CD400CCF81430CCF81C300AE0CBB94FF00060DB
:101CE400C2F8000900220A614FF67F328A6001338C
:101CF4009DF81C10994210D904EB431202F51061AF
:101D0400D2F800090028E8DB0020C2F80009E9E75E
:101D14004FF09040C2F80009E4E700230AE0BBB1A9
:101D24004FF09047C2F8007B002202614FF67F32E9
:101D340082600133994210D904EB431202F53060FA
:101D4400D2F8007B002FEADB0027C2F8007BEBE728
:101D54004FF00067C2F8007BE6E7DCF8103023F4AC
:101D64008073CCF810300023A3616FF0804363616B
:101D74009DF81E301BB9A36943F01003A361A26947
:101D84000B4B1343A3619DF822301BB1A36943F0AD
:101D94000803A361012E04D02846BDE8F84004B02E
:101DA4007047A36943F0804343F00403A361F3E75E
:101DB40000383C80D0F8003E23F00303C0F8003E16
:101DC400D0F8043843F00203C0F804380020704708
:101DD400406900F00100704738B50546C36823F038
:101DE400C043C360012913D019BBC36843F08043C7
:101DF400C36000240A20FFF7A3FD0A342846FFF736
:101E0400E7FF08B1C72CF5D9C82C14D0002038BD81
:101E1400C36843F00053C36000240A20FFF790FD19
:101E24000A342846FFF7D4FF0128EDD0C72CF4D993
:101E3400EAE70120EBE70120E9E70000034AD2F8D2
:101E4400883043F47003C2F88830704700ED00E036
:101E5400DFF834D0FFF7F2FF0C480D490D4A002398
:101E640002E0D458C4500433C4188C42F9D30A4A4B
:101E74000A4C002301E013600432A242FBD300F0B9
:101E840011F8FEF74FFC704700000220000000200C
:101E94000C000020401F00080C0000205805002002
:101EA400FEE7000070B50D4D0D4C641BA410002618
:101EB400A64209D10B4D0C4C00F020F8641BA41071
:101EC4000026A64205D170BD55F8043B984701365B
:101ED400EEE755F8043B98470136F2E7381F00084F
:101EE400381F0008381F00083C1F0008024403463E
:101EF400934200D1704703F8011BF9E7F8B500BF1E
:101F0400F8BC08BC9E467047F8B500BFF8BC08BCD6
:041F14009E4670472E
:101F18000000000000000000010203040607080991
:081F28000000000001020304A7
:081F300004E3FF7F0100000043
:041F3800E9010008B3
:041F3C00C5010008D3
:0C1F400001000000100000000024F4006C
:0400000508001E557C
:00000001FF
